:100000000C942E010C945F010C945F010C945F0121
:100010000C945F010C945F010C945F010C945F01E0
:100020000C945F010C945F010C945F010C945F01D0
:100030000C945F010C945F010C945F010C945F01C0
:100040000C945F010C94F5050C945F010C945F0116
:100050000C945F010C945F010C945F010C944B05B0
:100060000C945F010C94BF050C9495050C945F01F2
:100070000C945F010C945F010C945F010C945F0180
:100080000C945F010C945F010C945F010C945F0170
:100090000C945F010C945F010C945F010C945F0160
:1000A0000C945F010C945F010C945F010C945F0150
:1000B0000C945F010C945F010C945F010C945F0140
:1000C0000C945F010C945F010C945F010C945F0130
:1000D0000C945F010C945F010C945F010C945F0120
:1000E0000C945F010C94D6010C94F9020C946302F9
:1000F0000C94EA010C9402020C94B3020C94E001FB
:100100000C94FC010C9445050C94C1020C94EE0176
:100110000C94B0010C94D3010C9497030C949803A5
:100120000C94F8010C9406020C949F020C9490021B
:100130000C945B070C94B5010C94E6010C94DC0163
:100140000C94CB010C94CF010C94F4010C94C701D6
:100150000C94460300000A0B02090C0D0E0807035D
:10016000040100000000000000000000000000008A
:10017000000000000000000000000000000000007F
:10018000121110000000000000000000000000003C
:100190000000000000000000000000002200250018
:1001A00028002B002E003100340002010000050160
:1001B00008010B0100002100240027002A002D0067
:1001C0003000330001010000040107010A010505A8
:1001D0000505070508080808020202020A0A0808BD
:1001E00004040404010101010101010103030303EB
:1001F00003030303040707070C0C0C0C0C0C0C0C7A
:100200000202020206060606060606060B0B0B0B8A
:100210000B0B0B0B010210202008081020401020AF
:1002200040800201020108040201010204081020BA
:1002300040808040201008040201800402018040B8
:100240002010080402010804020101020408102021
:10025000408001020408102040805B0711241FBE6B
:10026000CFEFD1E2DEBFCDBF00E00CBF12E0A0E0D7
:10027000B2E0E4E8F3E100E00BBF02C007900D92AA
:10028000A834B107D9F723E0A8E4B2E001C01D9279
:10029000A031B207E1F711E0CEE2D1E000E006C004
:1002A00021970109802FFE010E94B809CD32D107A4
:1002B00080E00807A9F70E94AA070C94C0090C94D3
:1002C000000090E0FC01EC5EFD4F249182539E4FB4
:1002D000FC018491882399F090E0880F991FFC011C
:1002E000EC54FE4FA591B491FC01E656FE4F85916A
:1002F00094918FB7F894EC91E22BEC938FBF089513
:10030000282F30E0F901EC5AFE4F9491F901EC5E90
:10031000FD4F449122533E4FF9012491222309F4C9
:1003200035C0992311F191509231F8F4E92FF0E0A2
:100330008827E256FE4F8F4F0C94B809CF01D301A6
:10034000B001C701CB01B501D601DC01E001E60136
:10035000EA01EE01F401F801B501FC010202060216
:10036000809180008F7780938000E22FF0E0EE0F85
:10037000FF1FE656FE4FA591B4918FB7F894EC910C
:10038000611148C040954E234C938FBF08958091D2
:1003900080008F7DE8CF80918000877FE4CF84B597
:1003A0008F7784BDE2CF84B58F7DFBCF8091B00085
:1003B0008F778093B000D9CF8091B0008F7DF9CF37
:1003C000809190008F7780939000CFCF80919000A4
:1003D0008F7DF9CF80919000877FF5CF8091A0002D
:1003E0008F778093A000C1CF8091A0008F7DF9CF3F
:1003F0008091A000877FF5CF809120018F77809337
:100400002001B3CF809120018F7DF9CF8091200111
:10041000877FF5CF4E2BB8CF3FB7F8948091570226
:1004200090915802A0915902B0915A0226B5A89B0A
:1004300005C02F3F19F00196A11DB11D3FBFBA2F76
:10044000A92F982F8827BC01CD01620F711D811D36
:10045000911D42E0660F771F881F991F4A95D1F7BB
:1004600008958F929F92AF92BF92CF92DF92EF92B8
:10047000FF924B015C010E940C026B017C010E9407
:100480000C026C197D098E099F09683E7340810535
:100490009105A8F321E0821A9108A108B10888EE1D
:1004A000C80E83E0D81EE11CF11C81149104A10444
:1004B000B10429F7FF90EF90DF90CF90BF90AF90FD
:1004C0009F908F900895AF92BF92CF92DF92EF925C
:1004D000FF920F931F93CF93DF936C017B018B01EE
:1004E000040F151FEB015E01AE18BF08C017D1073E
:1004F00059F06991D601ED91FC910190F081E02DC8
:10050000C6011995892B79F7C501DF91CF911F910C
:100510000F91FF90EF90DF90CF90BF90AF90089534
:10052000FC01538D448D252F30E0842F90E0821BF9
:10053000930B541710F0CF96089501970895FC017E
:10054000918D828D981761F0A28DAE0FBF2FB11DD6
:100550005D968C91928D9F5F9F73928F90E008952E
:100560008FEF9FEF0895FC01918D828D981731F0E8
:10057000828DE80FF11D858D90E008958FEF9FEF3C
:100580000895FC01918D228D892F90E0805C9F4F12
:10059000821B91098F73992708958BE592E00E9441
:1005A000C10221E0892B09F420E0822F0895FC018B
:1005B000A48DA80FB92FB11DA35ABF4F2C91848DC4
:1005C00090E001968F739927848FA689B7892C9321
:1005D000A089B1898C91837080648C93938D848D74
:1005E000981306C00288F389E02D80818F7D808377
:1005F0000895EF92FF920F931F93CF93DF93EC0137
:1006000081E0888F9B8D8C8D98131AC0E889F989B9
:10061000808185FF15C09FB7F894EE89FF896083BC
:10062000E889F98980818370806480839FBF81E03D
:1006300090E0DF91CF911F910F91FF90EF9008957F
:10064000F62E0B8D10E00F5F1F4F0F731127E02E5A
:100650008C8D8E110CC00FB607FCFACFE889F98992
:10066000808185FFF5CFCE010E94D702F1CFEB8DBF
:10067000EC0FFD2FF11DE35AFF4FF0829FB7F89466
:100680000B8FEA89FB8980818062CFCFCF93DF9384
:10069000EC01888D8823B9F0AA89BB89E889F9899A
:1006A0008C9185FD03C0808186FD0DC00FB607FCCF
:1006B000F7CF8C9185FFF2CF808185FFEDCFCE0102
:1006C0000E94D702E9CFDF91CF91089580E090E0BA
:1006D000892B29F00E94CD0281110E94000080E048
:1006E00090E0892B49F080E090E0892B29F00E946E
:1006F000000081110E94000080E090E0892B49F009
:1007000080E090E0892B29F00E94000081110E9476
:10071000000080E090E0892B49F080E090E0892B98
:1007200029F00E94000081110C94000008950895A2
:1007300090E080E00895009769F0FC0101900020AE
:10074000E9F73197AF01481B590BBC0188EF92E0E4
:100750000C94630290E080E008950C949B03CF9288
:10076000DF92EF92FF920F931F93CF93DF93CDB75A
:10077000DEB7A1970FB6F894DEBF0FBECDBF282F0E
:1007800030E050E040E019A28E010F5D1F4F8AE07B
:10079000C82ED12CE12CF12CCA01B901A701960178
:1007A0000E949609605DF80162938F012115310561
:1007B0004105510589F7CF010E949B03A1960FB611
:1007C000F894DEBF0FBECDBFDF91CF911F910F9187
:1007D000FF90EF90DF90CF900895CF93DF93EC01DF
:1007E00060E08E810E94800161E08E810E94800124
:1007F00060E08E810E9480018BE891E00197F1F723
:10080000DF91CF910895CF92DF92EF92FF920F93F5
:100810001F93CF93DF936C017C0187E0E80EF11CFE
:10082000D0E0C0E0062F10E0B8010C2E02C0759594
:1008300067950A94E2F76170F70181917F010E9448
:1008400080012196C430D10579F7C601DF91CF919F
:100850001F910F91FF90EF90DF90CF900C94ED03DC
:10086000CF92DF92EF92FF920F931F93CF93DF937C
:10087000EC01F62E642F8C810E9480018D818F3FC8
:1008800019F060E00E9480010F2D10E08F8584FF39
:1008900025C06E0187E0C80ED11CF12CE12CB801F7
:1008A0000E2C02C0759567950A94E2F76170F60107
:1008B00081916F010E948001FFEFEF1AFF0A88E02B
:1008C000E816F10461F7CE01DF91CF911F910F91EE
:1008D000FF90EF90DF90CF900C94ED03B80184E08F
:1008E000759567958A95E1F7CE010E9403046F2DF7
:1008F000CE01DF91CF911F910F91FF90EF90DF908C
:10090000CF900C94030440E0682F88EF92E00C94A1
:10091000300481E00E9483048BE39FE10197F1F7AB
:100920000895CF93DF93823029F490910703986064
:100930009093070380930B0310920C0380E4809341
:100940000D0380E180930E0380E580930F03809177
:10095000FC020E9461018091FD028F3F11F00E9414
:1009600061018091FE020E946101C8EFD2E09E0108
:10097000285F32408091070384FD0AC084E090E044
:100980002196281739073CF48E810E946101EFCF30
:1009900088E090E0F5CF8BE39DE00197F1F760E010
:1009A0008091FC020E94800160E08091FE020E9422
:1009B00080018091FD028F3F19F060E00E9480016C
:1009C0008091070384FD34C063E088EF92E00E94C9
:1009D0000304CBE4D6E4CE010197F1F763E088EF9E
:1009E00092E00E9403042197F1F763E088EF92E020
:1009F0000E94030483E592E00197F1F762E088EF3B
:100A000092E00E9403048091070380620E948304A5
:100A100084E0809308038CE00E9483040E94890490
:100A200082E08093090386E0DF91CF910C948304E8
:100A300080620E9483048BE496E40197F1F7809131
:100A4000070380620E94830483E592E00197F1F737
:100A50008091070380620E948304D5CFE8EFF2E023
:100A60008089982F9260908B8A600C948304909177
:100A70000B03891710F08FEF890FE82FF0E0E85093
:100A8000FD4F848980680C94830441E00E94300407
:100A900081E090E008951F920F920FB60F921124FB
:100AA0002F933F938F939F93AF93BF938091530264
:100AB00090915402A0915502B09156023091520289
:100AC00023E0230F2D3758F50196A11DB11D20936A
:100AD00052028093530290935402A0935502B09314
:100AE00056028091570290915802A0915902B091FC
:100AF0005A020196A11DB11D80935702909358028E
:100B0000A0935902B0935A02BF91AF919F918F91D8
:100B10003F912F910F900FBE0F901F90189526E8D0
:100B2000230F0296A11DB11DD2CF1F920F920FB6B7
:100B30000F9211240BB60F922F933F934F935F9315
:100B40006F937F938F939F93AF93BF93EF93FF9395
:100B50008BE592E00E94D702FF91EF91BF91AF9198
:100B60009F918F917F916F915F914F913F912F91C5
:100B70000F900BBE0F900FBE0F901F9018951F92F5
:100B80000F920FB60F9211240BB60F922F938F93E3
:100B90009F93EF93FF93E0916B02F0916C02808141
:100BA000E0917102F091720282FD1DC090818091EE
:100BB00074028F5F8F7320917502821741F0E0916C
:100BC0007402F0E0E55AFD4F958F80937402FF9117
:100BD000EF919F918F912F910F900BBE0F900FBEB1
:100BE0000F901F9018958081F2CF1F920F920FB631
:100BF0000F9211240BB60F922F933F934F935F9355
:100C00006F937F938F939F93AF93BF93EF93FF93D4
:100C1000809105028F5F8C3309F454C080930502E4
:100C200080914F02882309F464C00E948904809156
:100C300003028A3020F487E292E00E94AD038091A3
:100C400003020E94AF0389E292E00E949B0380911D
:100C500004028A3020F487E292E00E94AD03809182
:100C600004020E94AF0389E292E00E949B038091FC
:100C700005028A3020F487E292E00E94AD03809161
:100C800005020E94AF0381E00E9437058BE292E0EB
:100C90000E94AD0380E00E9437050E942E05FF915F
:100CA000EF91BF91AF919F918F917F916F915F91E4
:100CB0004F913F912F910F900BBE0F900FBE0F9051
:100CC0001F90189510920502809104028F5F8C335B
:100CD00019F080930402A4CF1092040280910302C1
:100CE0008F5F883119F0809303029ACF109203022C
:100CF00097CF80914E02882321F10E948904809130
:100D000006028A3020F487E292E00E94AD038091CF
:100D100006020E94AF0389E292E00E949B03809149
:100D200007028A3020F487E292E00E94AD038091AE
:100D300007020E94AF0381E00E94370581E392E041
:100D4000A7CF80914D02882309F456C080914B02B1
:100D5000882339F080914A028F5F8C33B1F1809300
:100D60004A020E948904809148028A3020F487E276
:100D700092E00E94AD03809148020E94AF0389E295
:100D800092E00E949B03809149028A3020F487E21E
:100D900092E00E94AD03809149020E94AF0389E274
:100DA00092E00E949B0380914A028A3020F487E2FD
:100DB00092E00E94AD0380914A020E94AF0381E05D
:100DC0000E94370587E392E063CF8091480210923A
:100DD0004A02909149029F5F9C3319F09093490217
:100DE000C0CF109249028F5F883119F0809348027A
:100DF000B8CF10924802B5CF80914C02882309F4F5
:100E00004ECF80915002882331F0809102028150B0
:100E1000B0F1809302020E948904809100028A301E
:100E200020F487E292E00E94AD03809100020E94CC
:100E3000AF0389E292E00E949B03809101028A3015
:100E400020F487E292E00E94AD03809101020E94AB
:100E5000AF0389E292E00E949B03809102028A30F4
:100E600020F487E292E00E94AD03809102020E948A
:100E7000AF0381E00E94370581E492E009CF8091C1
:100E800000022BE32093020290910102915018F08E
:100E900090930102C0CF20930102815018F08093FB
:100EA0000002B9CF109200021092010210920202C9
:100EB00010925002B0CFEBE5F2E01382128288EE7E
:100EC00093E0A0E0B0E084839583A683B7838DE0B0
:100ED00092E09183808385EC90E09587848784EC11
:100EE00090E09787868780EC90E0918B808B81ECF7
:100EF00090E0938B828B82EC90E0958B848B86ECD8
:100F000090E0978B868B118E128E138E148EE8EFE5
:100F1000F2E0138212828FE192E09183808388E075
:100F2000848387E0858386E086838EE387838FE3EF
:100F3000808780E4818781E4828782E4838783E4F9
:100F4000848784E4858785E4868780E1878781E0DC
:100F50000C949104789484B5826084BD84B58160DA
:100F600084BD85B5826085BD85B5816085BD809174
:100F70006E00816080936E001092810080918100EC
:100F800082608093810080918100816080938100E4
:100F9000809180008160809380008091B1008460A6
:100FA0008093B1008091B00081608093B000809107
:100FB0009100826080939100809191008160809384
:100FC0009100809190008160809390008091A100B9
:100FD00082608093A1008091A10081608093A10034
:100FE0008091A00081608093A000809121018260A7
:100FF0008093210180912101816080932101809162
:10100000200181608093200180917A008460809328
:101010007A0080917A00826080937A0080917A00D1
:10102000816080937A0080917A00806880937A0052
:101030001092C100F894109280008DE0809381009E
:10104000C2E0C0936F0088E09DE390938900809395
:10105000880082E00E9491047894E0916B02F09104
:101060006C02C083E0916702F09168021082E09107
:101070006902F0916A028FEC808310927302E09112
:101080006F02F091700286E08083E0916D02F09132
:101090006E02808180618083E0916D02F0916E022A
:1010A000808188608083E0916D02F0916E02808182
:1010B00080688083E0916D02F0916E0280818F7D67
:1010C00080838FEF87B918B8FF24FA94C1E090911C
:1010D000060280910302981321C09091070280912B
:1010E000040298131BC080910502811117C08091E2
:1010F0005102813099F406E010E0F8B864EF71E035
:1011000080E090E00E94310218B868EC70E080E066
:1011100090E00E9431020150110979F7809100029C
:1011200081111AC080910102811116C080910202C2
:10113000813091F480915002882371F068EE73E061
:1011400080E090E00E943102F8B864EF71E080E046
:1011500090E00E94310218B88BE592E00E94C10233
:10116000892B79F18BE592E00E949F0281309105F5
:1011700059F5C0934F0210924E0210924D021092F8
:101180004C0264E670E080E090E00E9431028BE562
:1011900092E00E94C102892BA1F08BE592E00E94AF
:1011A0009F02182F8BE592E00E949F02D82F8BE5BB
:1011B00092E00E949F0210930302D0930402809356
:1011C00005020E94660383CF8230910521F51092BB
:1011D0004F02C0934E0210924D0210924C02C093E7
:1011E000510264E670E080E090E00E9431028BE5FD
:1011F00092E00E94C102892B21F38BE592E00E94CC
:101200009F02D82F8BE592E00E949F02D0930602A6
:1012100080930702D6CF8330910509F045C0109224
:101220004F0210924E02C0934D0210924C0264E69F
:1012300070E080E090E00E9431028BE592E00E9435
:10124000C102892B09F4BDCF8BE592E00E949F0279
:10125000D82F8BE592E00E949F02182F8BE592E039
:101260000E949F02DD33A9F410924B026091480264
:101270008BE592E00E94F902609149028BE592E0D1
:101280000E94F90260914A028BE592E00E94F90205
:1012900098CFDE3359F3C0934B02D093480210939A
:1012A000490280934A028DCF049709F08ACF1092A9
:1012B0004F0210924E0210924D02C0934C0264E60F
:1012C00070E080E090E00E9431028BE592E00E94A5
:1012D000C102892B09F475CF8BE592E00E949F0231
:1012E000D82F8BE592E00E949F02182F8BE592E0A9
:1012F0000E949F02DD3389F4109250026091000237
:101300008BE592E00E94F902609101028BE592E088
:101310000E94F90260910202B7CFC0935002D093AD
:10132000000210930102809302024BCFA1E21A2E19
:10133000AA1BBB1BFD010DC0AA1FBB1FEE1FFF1F79
:10134000A217B307E407F50720F0A21BB30BE40BC9
:10135000F50B661F771F881F991F1A9469F7609510
:101360007095809590959B01AC01BD01CF010895CA
:10137000EE0FFF1F881F8BBF0790F691E02D199489
:04138000F894FFCF0F
:101384000001000D1B000D320000000000F9026393
:101394000290024603C1029F02B30200000000450E
:1013A4000563029803970330003A00436C6F636B44
:1013B40000416C61726D0053746F7077617463687F
:0813C4000054696D6572000020
:00000001FF
